:100000000C946C000C9494000C9494000C949F0439
:100010000C949F040C949F040C9494000C949400F2
:100020000C9494000C947C030C9494000C94940015
:100030000C9494000C9494000C9494000C949400F0
:100040000C9432030C9494000C94F4020C94CE02A1
:100050000C9494000C9494000C9494000C949400D0
:100060000C94E0050C949400260F2B0F300F350FE5
:100070003A0F3F0F440F490F4E0F000000002400BD
:1000800027002A00000000002300260029000000AD
:100090000000250028002B000404040404040404C8
:1000A0000202020202020303030303030102040823
:1000B00010204080010204081020010204081020D2
:1000C0000000000800020100000304070000000017
:1000D000000000001910C20911241FBECFEFD8E0A4
:1000E000DEBFCDBF26E0ACE8B1E001C01D92A43870
:1000F000B207E1F711E0A0E0B1E0E2EBFBE202C001
:1001000005900D92AC38B107D9F710E0CBE6D0E0FE
:1001100004C02197FE010E94A613CA36D107C9F771
:100120000E94020A0C94CC150C940000FC01538D23
:10013000448D252F30E0842F90E0821B930B5417C1
:1001400010F0CF96089501970895FC01918D828D4E
:10015000981761F0828DDF01A80FB11D5D968C911B
:10016000928D9F5F9F73928F90E008958FEF9FEF26
:100170000895FC01918D828D981731F0828DE80FE2
:10018000F11D858D90E008958FEF9FEF0895FC019C
:10019000918D228D892F90E0805C9F4F821B910969
:1001A0008F739927089588E494E00E94C70021E0A6
:1001B000892B09F420E0822F0895FC01848DDF0152
:1001C000A80FB11DA35ABF4F2C91848D90E00196CA
:1001D0008F739927848FA689B7892C93A089B189B9
:1001E0008C9180648C93938D848D981306C00288C3
:1001F000F389E02D80818F7D80830895EF92FF92B7
:100200000F931F93CF93DF93EC0181E0888F9B8D39
:100210008C8D981305C0E889F989808185FD24C0FB
:10022000F62E0B8D10E00F5F1F4F0F731127E02E7E
:100230008C8DE8120CC00FB607FCFACFE889F9895B
:10024000808185FFF5CFCE010E94DD00F1CF8B8D3F
:10025000FE01E80FF11DE35AFF4FF0820B8FEA8990
:10026000FB898081806207C0EE89FF896083E8890D
:10027000F98980818064808381E090E0DF91CF9173
:100280001F910F91FF90EF900895CF93DF93EC01B2
:10029000888D8823C9F0EA89FB89808185FD05C0A6
:1002A000A889B9898C9186FD0FC00FB607FCF5CFE0
:1002B000808185FFF2CFA889B9898C9185FFEDCF28
:1002C000CE010E94DD00E7CFDF91CF91089580E05D
:1002D00090E0892B29F00E94D30081110C9400003A
:1002E000089590E0FC01E054FF4F3491FC01E45587
:1002F000FF4F2491FC01E856FF4FE491EE2309F4EF
:100300003BC0332339F1333091F038F43130A9F068
:10031000323001F584B58F7D12C0373091F038301E
:10032000A1F03430B9F4809180008F7D03C08091BA
:1003300080008F77809380000DC084B58F7784BD57
:1003400009C08091B0008F7703C08091B0008F7D8D
:100350008093B000F0E0EE0FFF1FE257FF4FA59132
:10036000B4918FB7F894EC91611103C020952E23BE
:1003700001C02E2B2C938FBF0895209146043091FD
:1003800047042817390771F490914404809145047B
:10039000981741F0E0914404F0E0E050FE4F808176
:1003A00090E008958FEF9FEF089508951F93CF93E6
:1003B000DF93DC015C962D913C915D972115310511
:1003C00039F481E090E013969C938E9312973DC090
:1003D0005196ED91FC91529750969C915097892F90
:1003E00080951FB75E964C915E9741FB772770F919
:1003F00041FD6095F8944081772311F0492B01C0AD
:1004000048234083E9012197F1F748E0508160FFDC
:1004100002C0592B01C058235083E9012197F1F7FD
:100420006695415099F7772321F090818923808345
:1004300003C08081982B90831FBF5C968D919C9107
:100440005D970197F1F721E030E0C901DF91CF918D
:100450001F910895209146043091470428173907C9
:1004600071F4809145042091440490E0805C9F4F9A
:10047000821B910960E470E00E949213089580E06D
:1004800090E00895209146043091470428173907D9
:10049000B9F49091440480914504981789F0E09153
:1004A0004404F0E0E050FE4F80812091440430E0AD
:1004B0002F5F3F4F2F7333272093440490E008951C
:1004C0008FEF9FEF089585ED8093BC008091BC0075
:1004D00084FDFCCF1092DA0108954091B401262FDB
:1004E00030E0240F311D21323105DCF42091DA0196
:1004F0002430C9F4FC0180E090E0861758F4309174
:10050000B4012191DC01AE56BE4FA30FB11D2C9357
:100510000196F3CF8091B401680F6093B40180E03D
:10052000089581E0089582E0089508958FEF9FEF88
:1005300008958FEF9FEF08958091910190E091953C
:10054000819591090895CF93DF9300D0CDB7DEB7A1
:10055000CB01642F49835A830E946D024981842F05
:100560005A81952F0F900F90DF91CF910895CF93DF
:10057000DF931F92CDB7DEB7698361E0CE010196AC
:100580000E946D0281E090E00F90DF91CF9108957D
:10059000089580E090E008950E94B7151F920F9291
:1005A0000FB60F9211242F933F934F935F936F9346
:1005B0007F938F939F93AF93BF93EF93FF9388E4C1
:1005C00094E00E94DD00FF91EF91BF91AF919F9168
:1005D0008F917F916F915F914F913F912F910F90EC
:1005E0000FBE0F901F9018951F920F920FB60F928B
:1005F00011242F938F939F93EF93FF93E0915804CF
:10060000F09159048081E0915E04F0915F0482FDD5
:1006100012C09081809161048F5F8F73209162047A
:10062000821751F0E0916104F0E0E85BFB4F958F99
:100630008093610401C08081FF91EF919F918F9120
:100640002F910F900FBE0F901F9018952FB7F89411
:100650006091450270914602809147029091480254
:100660002FBF08951F920F920FB60F9211242F9350
:100670003F938F939F93AF93BF9380914502909147
:100680004602A0914702B09148023091440223E013
:10069000230F2D3720F40196A11DB11D05C026E8BA
:1006A000230F0296A11DB11D2093440280934502A1
:1006B00090934602A0934702B09348028091400273
:1006C00090914102A0914202B09143020196A11D76
:1006D000B11D8093400290934102A0934202B093D7
:1006E0004302BF91AF919F918F913F912F910F90B6
:1006F0000FBE0F901F9018951F920F920FB60F927A
:1007000011242F933F934F935F936F937F938F9316
:100710009F93AF93BF93EF93FF9380914F0290917C
:1007200050028093B2008091520290915302A091A6
:100730005402B09155020196A11DB11D8093520241
:1007400090935302A0935402B093550280915202A9
:1007500090915302A0915402B091550240914B02E6
:1007600050914C0260914D0270914E028417950792
:10077000A607B70710F18091510281111EC081E0D8
:10078000809351028091520290915302A0915402A1
:10079000B0915502841B950BA60BB70B80935202A8
:1007A00090935302A0935402B0935502E0914902F2
:1007B000F0914A02099510925102FF91EF91BF9179
:1007C000AF919F918F917F916F915F914F913F91E9
:1007D0002F910F900FBE0F901F901895AF92BF9260
:1007E000CF92DF92FF920F931F93CF93DF931F92CD
:1007F000CDB7DEB75C01F62EFC011382128288EEC3
:1008000093E0A0E0B0E084839583A683B7838CE473
:1008100091E091838083178A168A118E108E138E31
:10082000128E158E148E668D6E7F20FB61F9668F99
:100830006695617081E06827842F49830E94710169
:10084000498150E0BA0164557F4FFB01A49148569D
:100850005F4FFA0184918823A9F090E0880F991FD7
:100860009C0126583F4FF9010591149182579F4FE3
:10087000FC01259134918FB7F894F8019081A92B50
:10088000A0838FBFFB016491F501608BFA01449155
:10089000E42FF0E0EE0FFF1FE257FF4F8591949198
:1008A000F501928B818B0F2D10E0C80184559F4F6D
:1008B0006C01FC01849108561F4FF80124912223FA
:1008C000C1F030E0220F331FF901E658FF4FA59128
:1008D000B49122573F4FF901459154912FB7F894A5
:1008E0009C91809598239C93FA0190818923808321
:1008F0002FBFF501868D81FD04C061E08F2D0E9420
:100900007101F501F486F601C490F501C586F80180
:100910000491E02FF0E0EE0FFF1FEC57FF4F8591A1
:100920009491F501978786870F90DF91CF911F9162
:100930000F91FF90DF90CF90BF90AF9008951F92DE
:100940000F920FB60F9211242F933F934F935F9303
:100950006F937F938F939F93AF93BF93EF93FF9387
:10096000E0914604F0914704309709F451C0968D08
:10097000A685B785858591FF04C09C91892329F4BC
:1009800047C09C91892309F043C0A389B4899C91F5
:100990008589809589238C93868997890197F1F7BA
:1009A000608D718DA685B785558538E020E0CB0137
:1009B0000197F1F7822F90E095958795282F4C911C
:1009C000452309F02068315091F7868D81FD2095EF
:1009D0008091450490E001968F73992730914404EB
:1009E000381749F0A0914504B0E0A050BE4F2C93B9
:1009F0008093450403C0868D8160868F828D938DA0
:100A00000197F1F7A389B4899C918589892B8C93EF
:100A1000FF91EF91BF91AF919F918F917F916F91D6
:100A20005F914F913F912F910F900FBE0F901F90AC
:100A30001895E0914604F0914704E817F90769F426
:100A4000A389B4899C918589809589238C93109280
:100A500047041092460481E0089580E00895CF9203
:100A6000DF92EF92FF92CF93C0919001C23099F044
:100A7000C33009F489C0C13009F094C082EE95E01A
:100A80000E94190584EA95E00E94190583EC95E01F
:100A90000E94610787C082EE95E00E94190583ECF1
:100AA00095E00E94190584EA95E00E946107609133
:100AB000450570914605072E000C880B990B0E9486
:100AC000041120E030E040E058E30E94631120E090
:100AD00030E044E353E40E94631160938C0170930F
:100AE0008D0180938E0190938F01609147057091E5
:100AF0004805072E000C880B990B0E94041120E07A
:100B000030E040E058E30E94631120E030E044E32D
:100B100053E40E9463116B017C0160935A0270934D
:100B20005B0280935C0290935D02809149059091F5
:100B30004A05BC01990F880B990B0E94041120E013
:100B400030E040E058E30E94631120E030E044E3ED
:100B500053E40E946311609356027093570280938E
:100B60005802909359026093820570938305809395
:100B7000840590938505C0928605D0928705E09202
:100B80008805F09289050EC082EE95E00E94190555
:100B900084EA95E00E94190583EC95E00E9419050E
:100BA0000E943907CF5FC43019F0C093900102C092
:100BB00010929001CF91FF90EF90DF90CF90089529
:100BC0001F920F920FB60F9211242F933F934F93C2
:100BD0005F936F937F938F939F93AF93BF93EF93A5
:100BE000FF938091B900887F803609F49CC068F536
:100BF000883209F45BC090F4803109F454C038F4B1
:100C0000882309F4F6C0883009F44DC0F6C0883155
:100C100009F44CC0803209F45DC0EFC0803409F49F
:100C200068C048F4803309F455C0883309F0E5C042
:100C30008093D901D8C0803509F44FC0883509F4B4
:100C40005DC0883409F0D9C0D6C0883909F4C7C05E
:100C5000A8F4883709F467C038F4883609F463C00B
:100C6000803709F460C0C9C0883809F4B8C0803939
:100C700009F45FC0803809F0C0C05BC0803B09F454
:100C800086C038F4803A09F466C0883A09F47FC017
:100C9000B4C0803C09F4A7C0883C09F4A4C0883BD8
:100CA00009F48AC0AAC08091FF0110C09091FE0192
:100CB0008091FD01981770F5E091FE0181E08E0FA3
:100CC0008093FE01F0E0E352FE4F80818093BB00F1
:100CD00085EC86C08093D9018EC0E091FE0181E051
:100CE0008E0F8093FE018091BB00F0E0E352FE4F37
:100CF00080839091FE018091FD016EC0E091FE0124
:100D000081E08E0F8093FE018091BB00F0E0E35202
:100D1000FE4F80838091DC0181116DC081E0809362
:100D2000DB0184EA61C083E08093DA011092D8018C
:100D3000CFCF8091D801803208F051C0E091D80126
:100D400081E08E0F8093D8018091BB00F0E0E854E1
:100D5000FE4F8083BDCF85EC8093BC001092DA01FA
:100D60008091D801803230F4E091D801F0E0E8546D
:100D7000FE4F10826091D80170E0E091B601F091D1
:100D8000B70188EB91E009951092D80136C084E054
:100D90008093DA011092B5011092B401E091B20192
:100DA000F091B30109958091B401811105C081E0F2
:100DB0008093B40110929201E091B50181E08E0F11
:100DC0008093B501F0E0EE56FE4F80818093BB002A
:100DD0009091B5018091B401981708F479CF85E816
:100DE0008093BC000AC085EC8093BC001092DA01AD
:100DF00004C01092D9010E946302FF91EF91BF914C
:100E0000AF919F918F917F916F915F914F913F91A2
:100E10002F910F900FBE0F901F901895CF92DF92D9
:100E2000EF92FF920F931F93CF93DF936C017A01A0
:100E30008B01C0E0D0E0CE15DF0589F0D8016D91BF
:100E40008D01D601ED91FC910190F081E02DC6015C
:100E50000995892B11F47E0102C02196ECCFC701C0
:100E6000DF91CF911F910F91FF90EF90DF90CF9086
:100E70000895E8E4F4E0A089B18982E08C93A48528
:100E8000B5851C92A685B7858FEC8C93108EA489AE
:100E9000B58986E08C93A289B3898C9180618C930B
:100EA000A289B3898C9188608C93A289B3898C9133
:100EB00080688C930288F389E02D80818F7D808308
:100EC0000895CF93DF93FC01138E128E118E108E36
:100ED000178A168A8DE991E0958F848F84858631F3
:100EE00008F04DC02DEB30E0378B268B2BE931E03D
:100EF000318F208F2CE231E0338F228F9091680068
:100F0000883050F021E08E3008F420E081E001C00C
:100F1000880F2A95EAF701C084E0892B8093680046
:100F20009485983038F09E3040F0963148F020E0BB
:100F300030E008C02DE630E005C02BE630E002C00E
:100F40002CE630E0348B238B983030F481E001C004
:100F5000880F9A95EAF70EC0292F30E09E3018F4DA
:100F60002850310902C02E50310981E001C0880F9C
:100F70002A95EAF7858B848D958D0197F1F7828DFF
:100F8000938D892BE9F080914604909147048E1748
:100F90009F07B1F0EF01009711F00E9419058E8DA7
:100FA0008E7F8E8F1092450410924404D093470494
:100FB000C0934604EB89FC8990818D89892B8083BD
:100FC000DF91CF910895E0914804F0914904019098
:100FD000F081E02D682F88E494E009948F929F922D
:100FE000AF92BF92CF92DF92EF92FF926B017C01A2
:100FF0000E9426034B015C01C60ED71EE81EF91E97
:101000000E942603681579058A059B0528F0C616F7
:10101000D706E806F906A0F7FF90EF90DF90CF9093
:10102000BF90AF909F908F900895CF93DF93EC0186
:1010300088819981009711F00E94551419821882B5
:101040001D821C821B821A82DF91CF910895EF923C
:10105000FF920F931F93CF93DF93EC017B018A01E3
:1010600088819981009729F02A813B8124173507CF
:10107000B0F4B8016F5F7F4F0E94ED14009759F0F4
:10108000998388831B830A832C813D81232B39F428
:10109000FC01108204C0CE010E94150807C01D8308
:1010A0000C83B701888199810E94C515CE01DF911B
:1010B000CF911F910F91FF90EF900895CF93DF9301
:1010C000EC016115710559F0FB0101900020E9F771
:1010D0003197AF01461B570B0E94270802C00E94A0
:1010E0001508CE01DF91CF910895FC011182108285
:1010F00013821282158214826115710551F0FB0171
:1011000001900020E9F73197AF01461B570B0C9473
:10111000270808956115710579F0FB010190002001
:10112000E9F73197AF01461B570BDC01ED91FC91BC
:101130000280F381E02D099480E090E008954F92C1
:101140005F926F927F92EF92FF920F931F93CF93D4
:10115000DF93CDB7DEB7A1970FB6F894DEBF0FBE11
:10116000CDBF7C01FA01CB0119A2223008F42AE09C
:101170008E010F5D1F4F422E512C612C712CBF012F
:10118000A30192010E942112F901CA010150110923
:101190006A3014F4605D01C0695CD8016C93232B44
:1011A000242B252B61F7B801C7010E948A08A1965C
:1011B0000FB6F894DEBF0FBECDBFDF91CF911F9168
:1011C0000F91FF90EF907F906F905F904F900895F8
:1011D0004F925F926F927F928F929F92AF92BF9247
:1011E000CF92DF92EF92FF926B017C01B42E9B01B4
:1011F000AC010E948D13882319F060E871E027C0CC
:1012000026013701E89477F82FEF3FEF4FE75FE7CC
:10121000C301B2010E948D1381110DC02FEF3FEF6A
:101220004FE75FE7C301B2010E94FD1018161CF4DE
:1012300064E871E00CC02FEF3FEF4FE75FE4C701B8
:10124000B6010E948813181694F468E871E088E4E7
:1012500094E0FF90EF90DF90CF90BF90AF909F9081
:101260008F907F906F905F904F900C948A082FEF33
:101270003FEF4FE75FECC701B6010E94FD1087FD0D
:10128000E4CF20E030E0A901C701B6010E94FD10C3
:1012900087FF09C08DE20E94E3074C01F7FAF09442
:1012A000F7F8F09402C0812C912CA12C60E070E042
:1012B00080E09FE3AB1441F020E030E040E251E4F5
:1012C0000E94E712A394F6CF9B01AC01C701B601BF
:1012D0000E947B122B013C010E9459136B017C017F
:1012E0000E9402119B01AC01C301B2010E947A125B
:1012F0002B013C012AE0B701A60188E494E00E949A
:101300009F087C01E80CF91CBB2029F08EE20E94AA
:10131000E307E80EF91EDB2CDD2031F120E030E0A0
:1013200040E251E4C301B2010E9463112B013C0170
:101330000E9459134B01A12CB12C2AE0B501A40144
:1013400088E494E00E949F08E80EF91EC501B401EC
:101350000E9402119B01AC01C301B2010E947A12EA
:101360002B013C01DA94D8CFC701FF90EF90DF90BA
:10137000CF90BF90AF909F908F907F906F905F9035
:101380004F900895CF93DF93C6E7D5E08E819F817C
:101390000E945514888199810E94551480918C0572
:1013A00090918D050E94551480919205909193051E
:1013B0000E94551480919805909199050E945514AA
:1013C00080919E0590919F050E945514CCE4D1E038
:1013D000D093A505C093A40584EA95E00E94190561
:1013E000D093C405C093C30583EC95E00E94190512
:1013F000D093E305C093E20582EE95E0DF91CF91B3
:101400000C941905CF93DF93CDB7DEB767970FB66E
:10141000F894DEBF0FBECDBF789484B5826084BDE2
:1014200084B5816084BD85B5826085BD85B58160E8
:1014300085BD80916E00816080936E001092810066
:101440008091810082608093810080918100816021
:1014500080938100809180008160809380008091E2
:10146000B10084608093B1008091B000816080936E
:10147000B00080917A00846080937A0080917A0035
:10148000826080937A0080917A00816080937A00F4
:1014900080917A00806880937A001092C100109247
:1014A000290510922A0510922B0510922C051092F6
:1014B000E7041092E8041092E9041092EA0468EB41
:1014C0007BE080E090E00E94EE0788E494E0909357
:1014D0002805809327050E9439070E942603609300
:1014E000E7047093E8048093E9049093EA046AE5C2
:1014F00071E080912705909128050E948A086AE092
:1015000070E080E090E00E94EE0781E08093FB04B1
:101510001092B40210920B0310920C0381E090E041
:1015200090938B0580938A0588EE93E0A0E0B0E06D
:1015300080934B0290934C02A0934D02B0934E02C5
:101540008FE295E090934A02809349028091700067
:101550008E7F809370008091B0008C7F8093B0006C
:101560008091B100877F8093B1008091B6008F7D1C
:101570008093B600809170008D7F80937000809181
:10158000B10084608093B1008091B1008C7F809322
:10159000B10086E090E09093500280934F02109249
:1015A000520210925302109254021092550210925D
:1015B000510280914F02909150028093B20080912D
:1015C000700081608093700024EF822E99249394A0
:1015D000A12CB12C0EE211E022242394312C0E9484
:1015E0002603672B682B692B41F40E942603623087
:1015F00071058105910508F40BC10E9426036093D3
:101600004004709341048093420490934304C0903B
:101610003C04D0903D04E0903E04F0903F046C15F3
:101620007D058E059F0540F460933C0470933D0456
:1016300080933E0490933F04C0903C04D0903D04BE
:10164000E0903E04F0903F049B01AC012C193D0951
:101650004E095F0969017A013AEFC316D104E1042A
:10166000F10408F4D5C060933C0470933D0480936A
:101670003E0490933F048092F3049092F404A0926D
:10168000F504B092F6041092F7041092F804109248
:10169000F9041092FA048091EB049091EC04A0916B
:1016A000ED04B091EE048093EF049093F004A093C6
:1016B000F104B093F2040E9426036093EB0470934C
:1016C000EC048093ED049093EE040E942603609353
:1016D000E7047093E8048093E9049093EA040E947D
:1016E00026036B017C016CE671E0809127059091E7
:1016F00028050E948A082AE041E050E060E070E09E
:1017000080912705909128050E949F0863E771E06A
:1017100080912705909128050E948A082AE0B70148
:10172000A60180912705909128050E949F0865E7F2
:1017300071E080912705909128050E948A08809188
:10174000EB049091EC04A091ED04B091EE04B7018C
:10175000A601481B590B6A0B7B0B2AE080912705D9
:10176000909128050E949F0865E771E08091270508
:10177000909128050E948A084091EB045091EC0456
:101780006091ED047091EE048091EF049091F0046B
:10179000A091F104B091F204481B590B6A0B7B0B2A
:1017A0002AE080912705909128050E949F0867E70D
:1017B00071E080912705909128050E948A080E9477
:1017C0002603AB01BC012AE08091270590912805F2
:1017D0000E949F08E0902705F090280569E771E0D6
:1017E000C7010E948A0869E671E0C7010E948A0861
:1017F00062E070E080E090E00E94EE070E94260325
:101800006093EB047093EC048093ED049093EE04EA
:1018100083EC95E00E942A02181619060CF02BC1E1
:1018200083EC95E00E94420280930C03843211F411
:1018300010920B03E0910B03E63048F491E09E0F09
:1018400090930B03F0E0EB5FFC4F80834FC09091CF
:101850000503943209F04AC090910603973409F0C9
:1018600045C0909107039E3409F040C09091080351
:10187000973491F490910903973471F490910A038D
:10188000913451F4AE2FB0E0AB54BD4F8C938A30FD
:10189000C9F41093B4022AC0909108039235B1F4B0
:1018A000909109039D3491F490910A03933471F45B
:1018B000AE2FB0E0AC59BD4F8C938A3019F4109321
:1018C000630214C0EF5FE0930B0310C09091080314
:1018D000973461F4909109039C3441F490910A0388
:1018E0009C3421F48A3011F41093620280916202D8
:1018F000882309F48DCF109262028091B40288236C
:1019000009F486CF1092B4021092610280916102B4
:101910008530F0F490E0E1E0F0E0EC0FFD1FE80F1F
:10192000F91FDC01AB54BD4F5E968C918083809192
:101930006002E1E0F0E0EC0FFD1FE80FF11D808197
:101940000E94E307809161028F5F80936102DECF86
:1019500010926002209160022530A0F430E0F9017D
:10196000EB54FD4F84A1E1E0F0E0EC0FFD1FE20F2E
:10197000F31F80830E94E307809160028F5F809352
:101980006002E8CF8A858B8789858A8788858987E1
:101990008F8188878E818F838D818E838C818D83CB
:1019A0000C8310925F0220915F022430A0F430E09B
:1019B000F901EB54FD4F8189EBE0F0E0EC0FFD1FE6
:1019C000E20FF31F80830E94E30780915F028F5F25
:1019D00080935F02E8CF10925E0280915E028530B4
:1019E000F0F490E0EBE0F0E0EC0FFD1FE80FF91FE2
:1019F000DC01AB54BD4F56968C91808380915F0281
:101A0000EBE0F0E0EC0FFD1FE80FF11D80810E947C
:101A1000E30780915E028F5F80935E02DECF8B8949
:101A20008C8B8A898B8B89898A8B8889898B8F8516
:101A3000888B8E858F878D858E870D87BE01655F2C
:101A40007F4F8CE795E00E945E08BE016F5F7F4F7D
:101A500086E795E00E945E08BE01655F7F4F8EE9D4
:101A600095E00E945E08BE016F5F7F4F88E995E0B8
:101A70000E945E08CDCE82EE95E00E942A021816E2
:101A800019060CF0B6C182EE95E00E9442029091D8
:101A90004003E92FF0E0EB5CFC4F8083911105C01F
:101AA00080913503853509F0A4C19F5F9B3019F003
:101AB000909340039EC11092400380913503853579
:101AC00009F097C180913603823509F46DC08335E2
:101AD00009F4F3C0813509F08CC16091380370E0DE
:101AE000762F662780913703682B072E000C880B12
:101AF000990B0E94041120E030E040E058E30E947E
:101B0000631120E030E040E851E40E9463116093EB
:101B1000290370932A0380932B0390932C036091E5
:101B20003A0370E0762F662780913903682B072EE1
:101B3000000C880B990B0E94041120E030E040E07B
:101B400058E30E94631120E030E040E851E40E9435
:101B5000631160932D0370932E0380932F03909352
:101B6000300360913C0370E0762F662780913B0341
:101B7000682B072E000C880B990B0E94041120E0A3
:101B800030E040E058E30E94631120E030E040E89C
:101B900051E40E9463116093310370933203809388
:101BA00033039093340366C06091380370E0762F5E
:101BB000662780913703682B072E000C880B990B42
:101BC0000E94041120E030E040E058E30E946311DD
:101BD00020E030E04AEF54E40E946311609319035F
:101BE00070931A0380931B0390931C0360913A0334
:101BF00070E0762F662780913903682B072E000C42
:101C0000880B990B0E94041120E030E040E058E37B
:101C10000E94631120E030E04AEF54E40E94631117
:101C200060931D0370931E0380931F039093200302
:101C300060913C0370E0762F662780913B03682B10
:101C4000072E000C880B990B0E94041120E030E055
:101C500040E058E30E94631120E030E04AEF54E492
:101C60000E946311609321037093220380932303E6
:101C70009093240360913E0370E0762F6627809155
:101C80003D03682B072E000C880B990B0E94041152
:101C900020E030E04AEA53E40E94E71220E030E01E
:101CA00041E152E40E947B12609325037093260366
:101CB00080932703909328039CC06091380370E0C1
:101CC000762F662780913703682B072E000C880B30
:101CD000990B0E94041120E030E040E058E30E949C
:101CE000631120E030E044E353E40E9463112B01D0
:101CF0003C0160930D0370930E0380930F03909348
:101D0000100360913A0370E0762F662780913903C3
:101D1000682B072E000C880B990B0E94041120E001
:101D200030E040E058E30E94631120E030E044E3FB
:101D300053E40E9463116093110370931203809324
:101D400013039093140360913C0370E0762F662791
:101D500080913B03682B072E000C880B990B0E9487
:101D6000041120E030E040E058E30E94631120E0DD
:101D700030E044E353E40E9463116B017C01609303
:101D800015037093160380931703909318036091C3
:101D90003E0370E0762F662780913D03682B072E67
:101DA000000C880B990B0E94041120E030E04AEAF5
:101DB00053E40E94E71220E030E041E152E40E9447
:101DC0007B126093250370932603809327039093DF
:101DD000280340928605509287056092880570928C
:101DE0008905C0928205D0928305E0928405F09225
:101DF000850588E0F82E84EA95E00E942A021816EC
:101E000019060CF05DC084EA95E00E944202E09160
:101E10003B0491E09E0F90933B04F0E0EF5BFC4F9E
:101E2000808380914103853509F041C09B3018F3D0
:101E3000E09142038E2F90E0FC01E055F109E9307A
:101E4000F105A8F5EC5CFF4F0C94A613E3E4F3E076
:101E5000ADE2B5E027C0E3E4F3E0A5E3B5E022C0DE
:101E6000E3E4F3E0ADE3B5E01DC0E3E4F3E0A5E4B3
:101E7000B5E018C0E3E4F3E0ADE4B5E013C0E3E49B
:101E8000F3E0A5E5B5E00EC0E3E4F3E0ADE5B5E0D1
:101E900009C0E3E4F3E0A5E6B5E004C0E3E4F3E061
:101EA000ADE6B5E08F2D01900D928A95E1F7109285
:101EB0003B04A1CF88E494E00E94A500813641F064
:101EC00088E494E00E94C700181619069CF3AEC07F
:101ED00060919E0570919F056115710549F04091D3
:101EE000A2055091A3058CE795E00E94270804C045
:101EF0008CE795E00E94150860919805709199050E
:101F00006115710549F040919C0550919D0586E74A
:101F100095E00E94270804C086E795E00E94150816
:101F200030928B0520928A0580915A0290915B0233
:101F3000A0915C02B0915D02809386059093870525
:101F4000A0938805B093890580915602909157021D
:101F5000A0915802B0915902809382059093830515
:101F6000A0938405B093850540917A0550917B0537
:101F7000609176057091770588E494E00E940E07E1
:101F80008CE70E94E30740918005509181056091A4
:101F90007C0570917D0588E494E00E940E078CE733
:101FA0000E94E3076091820570918305809184050A
:101FB0009091850542E00E94E8088CE70E94E307C3
:101FC00060918605709187058091880590918905BB
:101FD00042E00E94E8088CE70E94E30740918A05EE
:101FE00050918B05052E000C660B770B77FF12C006
:101FF0008DE24C8B5D8B6E8B7F8B0E94E3074C894F
:102000005D896E897F8970956095509541955F4F88
:102010006F4F7F4F2AE088E494E00E949F0869E6B2
:1020200071E088E494E00E948A084ACF0E94670128
:10203000D6CAE8E4F4E01382128288EE93E0A0E0CE
:10204000B0E084839583A683B7832AE031E03183AF
:10205000208325EC30E03587248724EC30E0378777
:10206000268720EC30E0318B208B21EC30E0338B65
:10207000228B22EC30E0358B248B26EC30E0378B42
:10208000268B118E128E138E148EE5EEF4E01682DE
:102090001782108611861286138614861586168678
:1020A0001786108A118A128A138A148A158A20E5E3
:1020B00020937505E4E7F6E013821282848395830A
:1020C000A683B7838CE191E091838083E1E0F6E021
:1020D0004FEF5FEFBA0140835183628373831086B1
:1020E0001186128613868FEF99ECAAE9BBE3808BE9
:1020F000918BA28BB38B808F918FA28FB38F80A394
:1021000091A3A2A3B3A380A791A7A2A7B3A780ABD3
:1021100091ABA2ABB3AB40AF51AF62AF73AF8FEF38
:1021200090E0909342068093410640934506509379
:102130004606609347067093480640934D065093B9
:102140004E0660934F0670935006109255061092FB
:10215000560682E080936606109267061092680623
:102160001092690610926A0610926B0610926C0625
:1021700010926D0610926F0610926E061092710604
:10218000109270061092570620E049E068E082EE57
:1021900095E00E94EE0320E04BE06AE083EC95E0DE
:1021A0000E94EE0320E04DE06CE084EA95E00E949E
:1021B000EE036BE671E08EE995E00E9475086BE630
:1021C00071E088E995E00E9475086BE671E082E9AC
:1021D00095E00E9475086BE671E08CE895E00E943E
:1021E00075086BE671E086E795E00E9475086BE67E
:1021F00071E08CE795E00C9475080E943F1108F49B
:1022000081E00895E89409C097FB3EF4909580958D
:10221000709561957F4F8F4F9F4F9923A9F0F92FAC
:1022200096E9BB279395F695879577956795B7952A
:10223000F111F8CFFAF4BB0F11F460FF1BC06F5F10
:102240007F4F8F4F9F4F16C0882311F096E911C022
:10225000772321F09EE8872F762F05C0662371F043
:1022600096E8862F70E060E02AF09A95660F771F57
:10227000881FDAF7880F9695879597F90895990F33
:102280000008550FAA0BE0E8FEEF16161706E80740
:10229000F907C0F012161306E407F50798F0621B61
:1022A000730B840B950B39F40A2661F0232B242B36
:1022B000252B21F408950A2609F4A140A6958FEF55
:1022C000811D811D08950E9476110C94E7110E94D2
:1022D000D91138F00E94E01120F0952311F00C94F0
:1022E000D0110C94D61111240C941B120E94F811D9
:1022F00070F3959FC1F3950F50E0551F629FF00159
:10230000729FBB27F00DB11D639FAA27F00DB11D71
:10231000AA1F649F6627B00DA11D661F829F2227FA
:10232000B00DA11D621F739FB00DA11D621F839F81
:10233000A00D611D221F749F3327A00D611D231F57
:10234000849F600D211D822F762F6A2F11249F57A5
:1023500050409AF0F1F088234AF0EE0FFF1FBB1FA8
:10236000661F771F881F91505040A9F79E3F510567
:1023700080F00C94D0110C941B125F3FE4F3983E54
:10238000D4F3869577956795B795F795E7959F5F11
:10239000C1F7FE2B880F911D9695879597F90895A3
:1023A00097F99F6780E870E060E008959FEF80EC08
:1023B000089500240A9416161706180609060895AB
:1023C00000240A9412161306140605060895092E11
:1023D0000394000C11F4882352F0BB0F40F4BF2B80
:1023E00011F460FF04C06F5F7F4F8F4F9F4F0895C0
:1023F00057FD9058440F551F59F05F3F71F04795B6
:10240000880F97FB991F61F09F3F79F0879508959A
:10241000121613061406551FF2CF4695F1DF08C0B9
:10242000161617061806991FF1CF869571056105D6
:1024300008940895E894BB2766277727CB0197F97E
:102440000895A1E21A2EAA1BBB1BFD010DC0AA1FF5
:10245000BB1FEE1FFF1FA217B307E407F50720F00D
:10246000A21BB30BE40BF50B661F771F881F991F88
:102470001A9469F760957095809590959B01AC01D1
:10248000BD01CF0108952F923F924F925F926F92BC
:102490007F928F929F92AF92BF92CF92DF92EF92F4
:1024A000FF920F931F93CF93DF93CDB7DEB7CA1B75
:1024B000DB0B0FB6F894DEBF0FBECDBF09942A88A0
:1024C000398848885F846E847D848C849B84AA8448
:1024D000B984C884DF80EE80FD800C811B81AA81D5
:1024E000B981CE0FD11D0FB6F894DEBF0FBECDBFA0
:1024F000ED0108955058BB27AA270E9492120C9410
:10250000E7110E94D91138F00E94E01120F039F44F
:102510009F3F19F426F40C94D6110EF4E095E7FBD6
:102520000C94D011E92F0E94F81158F3BA176207E2
:1025300073078407950720F079F4A6F50C941A1216
:102540000EF4E0950B2EBA2FA02D0B01B9019001CE
:102550000C01CA01A0011124FF27591B99F0593F12
:1025600050F4503E68F11A16F040A22F232F342F5A
:102570004427585FF3CF469537952795A795F040A8
:102580005395C9F77EF41F16BA0B620B730B840BBD
:10259000BAF09150A1F0FF0FBB1F661F771F881F75
:1025A000C2F70EC0BA0F621F731F841F48F48795CD
:1025B00077956795B795F7959E3F08F0B0CF9395BF
:1025C000880F08F09927EE0F9795879508950E9438
:1025D000FB120C94E7110E94E01158F00E94D911EF
:1025E00040F029F45F3F29F00C94D01151110C9464
:1025F0001B120C94D6110E94F81168F39923B1F3C1
:10260000552391F3951B550BBB27AA276217730718
:10261000840738F09F5F5F4F220F331F441FAA1FAC
:10262000A9F335D00E2E3AF0E0E832D09150504068
:10263000E695001CCAF72BD0FE2F29D0660F771F16
:10264000881FBB1F261737074807AB07B0E809F0FC
:10265000BB0B802DBF01FF2793585F4F3AF09E3F81
:10266000510578F00C94D0110C941B125F3FE4F3E9
:10267000983ED4F3869577956795B795F7959F5FC4
:10268000C9F7880F911D9695879597F90895E1E010
:10269000660F771F881FBB1F621773078407BA076F
:1026A00020F0621B730B840BBA0BEE1F88F7E095CA
:1026B00008950E94001288F09F5798F0B92F99272B
:1026C000B751B0F0E1F0660F771F881F991F1AF01D
:1026D000BA95C9F714C0B13091F00E941A12B1E056
:1026E00008950C941A12672F782F8827B85F39F055
:1026F000B93FCCF3869577956795B395D9F73EF4B6
:1027000090958095709561957F4F8F4F9F4F08955D
:102710000E943F1108F48FEF08950E943F11880B2B
:10272000990B089597FB072E16F4009407D077FDB8
:1027300009D00E94AC1307FC05D03EF4909581951A
:102740009F4F0895709561957F4F0895EE0FFF1F7D
:102750000590F491E02D0994AA1BBB1B51E107C021
:10276000AA1FBB1FA617B70710F0A61BB70B881F21
:10277000991F5A95A9F780959095BC01CD010895B0
:10278000CF93DF938230910510F482E090E0E091E6
:102790008206F091830620E030E0C0E0D0E0309780
:1027A00011F14081518148175907C0F04817590766
:1027B00061F482819381209719F09B838A832BC0D7
:1027C000909383068093820626C02115310519F067
:1027D0004217530718F49A01BE01DF01EF0102808E
:1027E000F381E02DDCCF2115310509F1281B390BD0
:1027F0002430310590F412968D919C9113976115B8
:10280000710521F0FB019383828304C090938306BA
:1028100080938206FD01329644C0FD01E20FF31F52
:1028200081939193225031092D933C933AC020918A
:10283000800630918106232B41F4209102013091D2
:10284000030130938106209380062091000130918E
:1028500001012115310541F42DB73EB74091040126
:1028600050910501241B350BE0918006F091810603
:10287000E217F307A0F42E1B3F0B2817390778F057
:10288000AC014E5F5F4F2417350748F04E0F5F1FB6
:1028900050938106409380068193919302C0E0E0BB
:1028A000F0E0CF01DF91CF9108950F931F93CF9365
:1028B000DF93009709F48CC0FC01329713821282D7
:1028C00000918206109183060115110581F4208183
:1028D0003181820F931F2091800630918106281745
:1028E000390779F5F0938106E093800671C0D8012D
:1028F00040E050E0AE17BF0750F412962D913C9186
:102900001397AD012115310509F1D901F3CF9D01CF
:10291000DA013383228360817181860F971F8217CA
:10292000930769F4EC0128813981260F371F2E5F48
:102930003F4F318320838A819B8193838283452B00
:1029400029F4F0938306E093820642C01396FC9329
:10295000EE931297ED01499159919E01240F351F75
:10296000E217F30771F480819181840F951F02961D
:1029700011969C938E938281938113969C938E9350
:102980001297E0E0F0E0D80112968D919C91139798
:10299000009719F0F8018C01F6CF8D919C91980168
:1029A0002E5F3F4F820F931F20918006309181064A
:1029B0002817390769F4309729F41092830610928A
:1029C000820602C013821282109381060093800651
:1029D000DF91CF911F910F910895A0E0B0E0E3EF58
:1029E000F4E10C944712EC01009721F4CB010E9412
:1029F000C013B8C0FC01E60FF71F9C01225031093B
:102A0000E217F30708F4ACC0D9010D911C9111979E
:102A100006171707B0F00530110508F49FC0C8016C
:102A200004978617970708F499C002501109061BEE
:102A3000170B019311936D937C93CF010E94551452
:102A40008DC05B01A01AB10A4C01800E911EA091AD
:102A50008206B091830640E050E0E12CF12C109703
:102A600009F44AC0A815B905D1F56D907C9011976D
:102A7000630182E0C80ED11CCA14DB0480F1A301FB
:102A80004A195B096A0182E0C80ED11C1296BC90FB
:102A900012971396AC91B5E0CB16D10440F0B282F8
:102AA000A38351834083D9016D937C930AC00E5F49
:102AB0001F4FC301800F911FF90191838083EB2D7C
:102AC000FA2FE114F10431F0D7011396FC93EE9341
:102AD000129744C0F0938306E09382063FC08D9125
:102AE0009C9111974817590708F4AC017D01129683
:102AF0000D90BC91A02DB3CF80918006909181065E
:102B000088159905E1F446175707C8F4809100012C
:102B100090910101009741F48DB79EB74091040157
:102B200050910501841B950BE817F907C8F4F09341
:102B30008106E0938006F901718360830FC0CB01A9
:102B40000E94C0137C01009759F0A801BE010E94A9
:102B5000BC15CE010E945514C70104C0CE0102C0AD
:102B600080E090E0CDB7DEB7EEE00C94631281E038
:102B700090E0F8940C94CC15FB01DC0102C00190AC
:102B80000D9241505040D8F70895FB01DC010190AF
:102B90000D920020E1F7089510E0CBE6D0E004C0EC
:102BA000FE010E94A6132196CC36D107C9F7F894EE
:022BB000FFCF55
:102BB20000008406800000000000FE000E07960060
:102BC2004501C700A500B90000000000B702A3023A
:102BD200C90295029C029902960200000000CC02F2
:102BE2000E07C902C802CC02CC02CC0200000000CF
:102BF200CC020E07C902C80200000000D6010E076F
:102C0200C902D5012A024202BD01564D4450565F07
:102C1200317C315F564D4450560D0A00564D44509A
:102C2200455F003A323A007C005F564D4450450001
:0C2C32006E616E00696E66006F766600D1
:00000001FF
